:020000040800F2
:1000000000500020410300089103000891030008FC
:10001000910300089103000891030008000000000C
:100020000000000000000000000000009103000834
:1000300091030008000000009103000891030008EC
:100040009103000891030008910300089103000840
:100050009103000891030008910300089103000830
:100060009103000891030008910300089103000820
:100070009103000891030008910300089103000810
:100080009103000891030008910300089103000800
:1000900091030008910300089103000891030008F0
:1000A00091030008910300089103000891030008E0
:1000B00091030008910300089103000891030008D0
:1000C00091030008910300089103000891030008C0
:1000D00091030008910300089103000891030008B0
:1000E000910300089103000800000000910300083C
:1000F0009103000891030008910300089103000890
:10010000910300089103000891030008910300087F
:10011000910300089103000891030008910300086F
:10012000910300089103000891030008910300085F
:1001300010B5054C237833B9044B13B10448AFF321
:1001400000800123237010BD040000200000000087
:10015000DC03000808B5034B1BB103490348AFF3A8
:10016000008008BD0000000008000020DC0300083B
:1001700080B400AF0A4B9B69094A43F010039361B6
:10018000084B5B68074A23F470035360054B5B68B8
:10019000044A43F44013536000BFBD4680BC70471F
:1001A000001002400010014080B400AF034B4FF03C
:1001B00000521A6100BFBD4680BC7047001001406C
:1001C00080B400AF034B4FF400521A6100BFBD462C
:1001D00080BC70470010014080B500AFFFF7C8FF3A
:1001E000FFF7E2FF4FF4FA7000F064F8FFF7E8FF62
:1001F0004FF4FA7000F05EF800BFF1E780B400AF92
:10020000284B1B68274A43F48033136000BF254BFB
:100210001B6803F40033002BF9D0234B14221A601F
:10022000204B5B681F4A23F47C1353601D4B5B68B3
:100230001C4A43F4E01353601A4B5B68194A43F4B9
:1002400080335360174B5B68164A23F4E0635360B6
:10025000144B5B68134A43F480635360114B1B6873
:10026000104A43F08073136000BF0E4B1B6803F00D
:100270000073002BF9D00B4B5B6823F00303094A92
:1002800043F00203536000BF064B5B6803F00C03AE
:10029000082BF9D1054B064A1A6000BFBD4680BC49
:1002A000704700BF00100240002002400000002004
:1002B00000A24A0480B483B000AF78607B68002B52
:1002C00039D04FF080431B684FF0804223F0010388
:1002D00013604FF080427B68013BD3624FF0804354
:1002E00000225A624FF080431B694FF0804223F096
:1002F000010313614FF080431B684FF0804243F0CD
:100300000103136000BF4FF080431B6903F001033A
:10031000002BF8D04FF080431B694FF0804223F050
:10032000010313614FF080431B684FF0804223F0BC
:100330000103136000E000BF0C37BD4680BC70476E
:100340000D488546FFF75AFF0C480D490D4A00231A
:1003500002E0D458C4500433C4188C42F9D30A4A7A
:100360000A4C002301E013600432A242FBD300F0E8
:1003700011F8FFF731FFFEE70050002000000020D9
:1003800004000020FC0300080400002020000020DE
:10039000FEE7000070B500260C4D0D4B5B1B9C105A
:1003A000A64209D1002600F019F80A4D0A4B5B1B42
:1003B0009C10A64205D170BD55F8043B9847013604
:1003C000EEE755F8043B98470136F2E7F4030008DE
:1003D000F4030008F4030008F8030008F8B500BFB0
:1003E000F8BC08BC9E467047F8B500BFF8BC08BC16
:0403F0009E4670476E
:0403F40055010008A7
:0403F80031010008C7
:0403FC0000A24A040D
:0400000508000341AB
:00000001FF
